:04000000E7EF10F026
:10100000003132333435363738392A3023496E636C
:101010006F72726563742050617373776F726421AD
:101020000054727920616761696E20696E2020200A
:101030002073656300456E74657220506173737729
:0F1040006F72643A0057656C636F6D6521000035
:101050001CEC11F02C0E4C6E000E4D6E350E4E6ECB
:10106000100E4F6ED7EC0FF0246E3DEC0FF0686E53
:10107000060E6318D8A43FEF08F041EF08F092EF96
:1010800009F0000E636E0E0E236E400E5E180AE12C
:10109000E20E5F1807E160046110D8A452EF08F077
:1010A00054EF08F0ABEF08F0340E3F6E000E406EC8
:1010B000DBEC0DF0246E320E3F6E000E406E8BECBA
:1010C00010F0246E2C0E486E000E496E010E4A6E12
:1010D000A4EC0FF0246E2C0E536E000E546E010E15
:1010E000556E070E566E450E576E100E586E28EC54
:1010F00010F0246E000E626E100E5B6E390E5A6E8A
:101100000E0EE82EFED75A2EFCD75B2EFAD7340EE1
:101110003F6E000E406E1CEC0EF0246E320E3F6EE1
:10112000000E406E6BEC10F0246E2C0E486E000E1C
:10113000496E010E4A6EA4EC0FF0246E2C0E4C6E1C
:10114000000E4D6E350E4E6E100E4F6ED7EC0FF03A
:10115000246EF1EF08F0670E3F6E000E406EDBEC80
:101160000DF0246E2C0E486E000E496E010E4A6E74
:10117000A4EC0FF0246E2C0E536E000E546E010E74
:10118000556E020E566E0D0E576E100E586E28ECF0
:1011900010F0246E622A0B0E5B6E260E5A6E5E0EE7
:1011A000E82EFED75A2EFCD75B2EFAD7670E3F6E7D
:1011B000000E406E1CEC0EF0246E2C0E486E000EDD
:1011C000496E010E4A6EA4EC0FF0246E2C0E4C6E8C
:1011D000000E4D6E350E4E6E100E4F6ED7EC0FF0AA
:1011E000246E030E6218D8A4F8EF08F0FAEF08F0A6
:1011F0008AEF09F02C0E536E000E546E010E556EE0
:10120000010E566E210E576E100E586E28EC10F01F
:10121000246E3C0E5D6E5DC03DF03E6A000E406E79
:101220000A0E3F6EEAEC0CF03D50300F5C6E2C0E57
:10123000536E000E546E010E556E100E566E5CC04D
:1012400057F0ABEC10F0246E000E386E0A0E376EBD
:101250005DC035F0366A2CEC0CF035C03DF036C080
:101260003EF0000E406E0A0E3F6EEAEC0CF03D5070
:10127000300F5C6E2C0E536E000E546E010E556EC8
:101280000F0E566E5CC057F0ABEC10F0246E670E7C
:101290003F6E000E406EDBEC0DF0246E030E5B6EB5
:1012A0008A0E5A6E560EE82EFED75A2EFCD75B2EAB
:1012B000FAD7670E3F6E000E406E1CEC0EF0246EE7
:1012C000030E5B6E8A0E5A6E560EE82EFED75A2E0D
:1012D000FCD75B2EFAD75D065D50D8A472EF09F0FB
:1012E00074EF09F00BEF09F0000E626E2C0E486EE1
:1012F000000E496E010E4A6EA4EC0FF0246E2C0E07
:101300004C6E000E4D6E350E4E6E100E4F6ED7ECBD
:101310000FF0246E000E5E6E000E5F6E000E606EAB
:10132000000E616E2F0E686498EF09F09AEF09F0D5
:1013300035EF08F03A0E6860A0EF09F0A2EF09F06F
:1013400035EF08F0632AD00E68245A6E5B6AFF0EF0
:101350005B225EC035F05FC036F060C037F061C020
:1013600038F00A0E396E000E3A6E000E3B6E000E1B
:101370003C6E08EC0FF05A5035245E6E5B50362000
:101380005F6E000E3720606E000E3820616E2C0EEE
:10139000536E000E546E020E556E232A23C056F073
:1013A00068C057F0ABEC10F0246E030E5B6E080EB5
:1013B0005A6E770EE82EFED75A2EFCD75B2EFAD740
:1013C00000F02C0E536E000E546E020E556E23C0AC
:1013D00056F02A0E576EABEC10F0246E35EF08F085
:1013E00000EF00F0010E3D6E35503610D8B4FBEF23
:1013F00009F0FDEF09F00EEF0AF035C0D9FF36C055
:10140000DAFFDF30E832E832070B376E070E376459
:101410000CEF0AF00EEF0AF071EF0AF0000E3D6ECD
:1014200092EF0AF035C0D9FF36C0DAFFDF30E8327C
:10143000E832070B376E010E386E372A22EF0AF0BA
:10144000D8903836372E20EF0AF03850FF0A396E20
:1014500035C0D9FF36C0DAFFDF50070B3A6E3A507D
:10146000020D150EF324D96E000EF420DA6EDECFD5
:101470003BF0DDCF3CF03BC0D9FF3CC0DAFF395038
:10148000DF1692EF0AF035C0D9FF36C0DAFFDF3041
:10149000E832E832070B376E010E386E372A53EF09
:1014A0000AF0D8903836372E51EF0AF035C0D9FF00
:1014B00036C0DAFFDF50070B396E3950020D150EBA
:1014C000F324D96E000EF420DA6EDECF3AF0DDCFD1
:1014D0003BF03AC0D9FF3BC0DAFF3850DF1292EF41
:1014E0000AF035C0D9FF36C0DAFFDFBC7AEF0AF068
:1014F0007DEF0AF0010E7EEF0AF0000E376E386ABB
:101500003850000AD8B487EF0AF00EEF0AF03750CF
:10151000000AD8B412EF0AF0010AD8B443EF0AF077
:101520000EEF0AF03D501200010E3E6E355036109F
:10153000D8B49DEF0AF09FEF0AF0B0EF0AF035C083
:10154000D9FF36C0DAFFDF30E832E832070B386EF9
:10155000070E3864AEEF0AF0B0EF0AF013EF0BF0AD
:10156000000E3E6E28EF0BF035C0D9FF36C0DAFF13
:10157000DF30E832E832070B386E010E396E382A58
:10158000C4EF0AF0D8903936382EC2EF0AF039503D
:10159000FF0A3A6E35C0D9FF36C0DAFFDF50070BBD
:1015A0003B6E3B50020D010EF324D96E000EF42069
:1015B000DA6EDECF3CF0DDCF3DF03CC0D9FF3DC060
:1015C000DAFF3A50DF1628EF0BF035C0D9FF36C0EE
:1015D000DAFFDF30E832E832070B386E010E396E81
:1015E000382AF5EF0AF0D8903936382EF3EF0AF0A2
:1015F00035C0D9FF36C0DAFFDF50070B3A6E3A50DC
:10160000020D010EF324D96E000EF420DA6EDECF47
:101610003BF0DDCF3CF03BC0D9FF3CC0DAFF395096
:10162000DF1228EF0BF03750386E396A3950000A54
:10163000D8B41DEF0BF0B0EF0AF03850000AD8B460
:10164000B4EF0AF0010AD8B4E5EF0AF0B0EF0AF0FF
:101650003E501200000E516E4C504D10D8B433EF76
:101660000BF035EF0BF0B8EF0BF04CC03FF04DC076
:1016700040F0D2EC0EF0010E4C243F6E000E4D20D7
:10168000406ED2EC0EF0000E506E50504C244E6E58
:10169000000E4D204F6E020E4E243F6E000E4F2066
:1016A000406ED2EC0EF0502A030E50645AEF0BF04D
:1016B0005CEF0BF045EF0BF01A0E4E6EF80EE82EB5
:1016C000FED74E2EFCD700D04CC048F04DC049F09C
:1016D000380E4A6EA4EC0FF0070E4E6E7D0EE82E0B
:1016E000FED74E2EFCD700F04CC048F04DC049F05C
:1016F000380E4A6EA4EC0FF0320EE82EFED74CC026
:1017000048F04DC049F0380E4A6EA4EC0FF04CC0C2
:1017100048F04DC049F0010E4A6EA4EC0FF04CC0E9
:1017200048F04DC049F0020E4A6EA4EC0FF04CC0D8
:1017300048F04DC049F0060E4A6EA4EC0FF04CC0C4
:1017400048F04DC049F00C0E4A6EA4EC0FF04CC0AE
:1017500048F04DC049F0280E4A6EA4EC0FF04CC082
:1017600048F04DC049F0800E4A6EA4EC0FF0516E67
:1017700051501200000E456E3F504010D8B4C3EFD8
:101780000BF0C5EF0BF02AEF0CF041504210D8B42B
:10179000CCEF0BF0CEEF0BF02AEF0CF0000E486E02
:1017A00048503F24356E000E4020366E010E376ED5
:1017B00094EC0AF0000E476E47503F24436E000E33
:1017C0004020446E040E4324356E000E4420366ED5
:1017D000460E376E000E386E8EEC0CF04604D8A420
:1017E000F4EF0BF0F6EF0BF00DEF0CF04850030D9B
:1017F000010EF324436E100EF420446E475043262E
:10180000000E442243C0F6FF44C0F7FF41C0D9FF99
:1018100042C0DAFF0800F5CFDFFF472A020E476417
:1018200014EF0CF016EF0CF0DCEF0BF048503F24F7
:10183000356E000E4020366E000E376E94EC0AF0C6
:10184000456E482A030E486428EF0CF02AEF0CF08E
:10185000D0EF0BF045501200000E3A6E38BE35EF57
:101860000CF033EF0CF03BEF0CF0376C381ED8B0B7
:10187000382A010E3A6E36BE42EF0CF040EF0CF003
:1018800048EF0CF0356C361ED8B0362A010E3A1AE5
:10189000000E3C6E000E3B6E37503810D8B453EF3C
:1018A0000CF055EF0CF07DEF0CF0010E396E5DEF92
:1018B0000CF0D89037363836392A38AE62EF0CF053
:1018C00064EF0CF059EF0CF0D8903B363C363750B3
:1018D000355C38503658D8A070EF0CF072EF0CF031
:1018E00077EF0CF03750355E3850365A3B80D89041
:1018F00038323732392E64EF0CF03A50D8B483EFD7
:101900000CF085EF0CF089EF0CF03B6C3C1ED8B06E
:101910003C2A3BC035F03CC036F01200010E3E6E52
:1019200035503610D8B497EF0CF099EF0CF0B3EFB8
:101930000CF037503810D8B4A0EF0CF0A2EF0CF038
:10194000B3EF0CF035C0D9FF36C0DAFFDF30E83234
:10195000E832070B396E070E3964B1EF0CF0B3EFC4
:101960000CF0B7EF0CF0000E3E6EE8EF0CF035C057
:10197000D9FF36C0DAFFDF30E832E832070B396EC4
:1019800035C0D9FF36C0DAFFDF50070B3A6E3A5048
:10199000020D0B0EF324D96E000EF420DA6EDECFAA
:1019A0003BF0DDCF3CF03BC0D9FF3CC0DAFFDF505D
:1019B0003D6E392ADEEF0CF0D8903D32392EDCEF47
:1019C0000CF03D50010B37C0D9FF38C0DAFFDF6E95
:1019D0003E501200000E426E3EBEF3EF0CF0F1EFEF
:1019E0000CF0F9EF0CF03D6C3E1ED8B03E2A010E13
:1019F000426E40BE00EF0DF0FEEF0CF004EF0DF074
:101A00003F6C401ED8B0402A3F504010D8B40BEF76
:101A10000DF00DEF0DF031EF0DF0010E416E15EFF1
:101A20000DF0D8903F364036412A40AE1AEF0DF007
:101A30001CEF0DF011EF0DF03F503D5C40503E5853
:101A4000D8A025EF0DF027EF0DF02BEF0DF03F5054
:101A50003D5E40503E5AD89040323F32412E1CEFFE
:101A60000DF04250D8B437EF0DF039EF0DF03DEFE7
:101A70000DF03D6C3E1ED8B03E2A3DC03DF03EC04C
:101A80003EF01200000E526E4C504D10D8B44BEF89
:101A90000DF04DEF0DF08DEF0DF0030E4E6053EF96
:101AA0000DF055EF0DF08DEF0DF0150E4F605BEF63
:101AB0000DF05DEF0DF08DEF0DF04F0678EF0DF0AE
:101AC0004CC048F04DC049F04F50800F4A6EA4EC16
:101AD0000FF0526E8DEF0DF04CC048F04DC049F044
:101AE0004F50C00F4A6EA4EC0FF0526E8DEF0DF008
:101AF0004E50506E516A5150000AD8B482EF0DF02A
:101B00008DEF0DF05050010AD8B460EF0DF0030ACC
:101B1000D8B46CEF0DF08DEF0DF052501200000EA6
:101B2000476E43504410D8B498EF0DF09AEF0DF083
:101B3000D9EF0DF0000E496E000E486E4850432458
:101B40003F6E49504420406ED2EC0EF0484A492A7C
:101B500049BEB4EF0DF0495009E1040E485CD8A02D
:101B6000B4EF0DF0B6EF0DF09EEF0DF0000E4B6EE2
:101B7000000E4A6E4A504324456E4B504420466E38
:101B8000040E4524356E000E4620366EF2EC09F048
:101B9000476E4A4A4B2A4BBED7EF0DF04B5009E136
:101BA000030E4A5CD8A0D7EF0DF0D9EF0DF0BAEFD5
:101BB0000DF0475012003F504010D8A4E2EF0DF056
:101BC000E4EF0DF0E8EF0DF0000E426E1AEF0EF0AC
:101BD00065C043F03FC0D9FF40C0DAFFDF50070BBC
:101BE000416E43504118F80B4118436E3FC0D9FF76
:101BF00040C0DAFFDF30E832E832070B416E414681
:101C00004146414643504118C70B4118436E439C1F
:101C10003FC0D9FF40C0DAFFDFAC02D0438E01D015
:101C2000439E430E356E000E366E010E376E94ECF9
:101C30000AF0426E425012003F504010D8A423EFE9
:101C40000EF025EF0EF029EF0EF0000E426E5BEF66
:101C50000EF064C043F03FC0D9FF40C0DAFFDF5050
:101C6000070B416E43504118F80B4118436E3FC0BB
:101C7000D9FF40C0DAFFDF30E832E832070B416EAF
:101C800041464146414643504118C70B4118436EF7
:101C9000439C3FC0D9FF40C0DAFFDFAC02D0438E87
:101CA00001D0439E430E356E000E366E000E376E29
:101CB00094EC0AF0426E4250120043504410D8A4F3
:101CC00064EF0EF066EF0EF06AEF0EF0000E466E57
:101CD0009AEF0EF066C047F043C0D9FF44C0DAFF68
:101CE000DF50070B456E47504518F80B4518476EF7
:101CF00043C0D9FF44C0DAFFDF30E832E832070BD7
:101D0000456E45464546454647504518C70B45185C
:101D1000476E479C43C0D9FF44C0DAFFDFAC02D016
:101D2000478E01D0479E470E3F6E000E406ED2ECAC
:101D30000EF0466E46501200000E466E3F504010A8
:101D4000D8B4A5EF0EF0A7EF0EF0D0EF0EF0000E16
:101D5000476E47503F24426E000E4020436E020EF5
:101D60004224356E000E4320366E47C044F041C019
:101D700045F0442ABEEF0EF0D8904532442EBCEF19
:101D80000EF04550010B376E94EC0AF0466E472A70
:101D9000030E4764CEEF0EF0D0EF0EF0A9EF0EF079
:101DA000465012003F504010D8B4D9EF0EF0DBEF90
:101DB0000EF0ECEF0EF03FC0D9FF40C0DAFFDF308D
:101DC000E832E832070B416E070E4164EAEF0EF08D
:101DD000ECEF0EF0F0EF0EF0000E426E06EF0FF09B
:101DE0003FC035F040C036F0F2EC09F0426E3FC023
:101DF00035F040C036F03FC0D9FF40C0DAFF000EDA
:101E0000DFBE010E376E94EC0AF0426E42501200B3
:101E1000000E3D6E000E3E6E000E3F6E000E406ED8
:101E200035A015EF0FF017EF0FF01FEF0FF039503F
:101E30003D263A503E223B503F223C504022D89013
:101E400039363A363B363C36D8903832373236322D
:101E500035323550361037103810D8A432EF0FF025
:101E600034EF0FF010EF0FF03DC035F03EC036F00C
:101E70003FC037F040C038F01200250E3F6E000E14
:101E8000406E4A0E416E000E426EBAEC0BF0246EAC
:101E9000C30E496ECD0EE82EFED7492EFCD700F0BA
:101EA0004A50D8A456EF0FF058EF0FF05BEF0FF049
:101EB000000E70EF0FF0250E3F6E000E406E4B0EC1
:101EC000416E000E426EBAEC0BF0246E4B504A1875
:101ED000D8A46DEF0FF06FEF0FF058EF0FF04B50ED
:101EE0001200000E4B6E48504910D8B47AEF0FF034
:101EF0007CEF0FF0A2EF0FF048C035F049C036F08C
:101F0000010E376E94EC0AF048C03FF049C040F033
:101F10004A380F0B416E9CEC0EF048C03FF049C0B0
:101F200040F003EC10F048C03FF049C040F04AC018
:101F300041F09CEC0EF048C03FF049C040F003EC8B
:101F400010F04B6E4B501200000E4B6E4850491073
:101F5000D8B4ADEF0FF0AFEF0FF0D5EF0FF048C0F2
:101F600035F049C036F0000E376E94EC0AF048C0E8
:101F70003FF049C040F04A380F0B416E9CEC0EF028
:101F800048C03FF049C040F003EC10F048C03FF0BB
:101F900049C040F04AC041F09CEC0EF048C03FF010
:101FA00049C040F003EC10F04B6E4B501200000E95
:101FB000506E4C504D10D8B4E0EF0FF0E2EF0FF040
:101FC00001EF10F0010E506E4CC048F04DC049F0CA
:101FD0004EC0F6FF4FC0F7FF0800F5CF4AF071EC96
:101FE0000FF04E4A4F2A4EC0F6FF4FC0F7FF0800D1
:101FF000F5500009D8A4FFEF0FF001EF10F0E4EF67
:102000000FF050501200000E416E3F504010D8B4F7
:102010000CEF10F00EEF10F026EF10F0010E3F2441
:10202000356E000E4020366E010E376E94EC0AF0CD
:1020300000D000D000F0010E3F24356E000E40208D
:10204000366E000E376E94EC0AF0416E415012006D
:10205000000E596E53505410D8B431EF10F033EFD6
:1020600010F048EF10F053C04CF054C04DF055C084
:102070004EF056C04FF042EC0DF053C04CF054C03F
:102080004DF057C04EF058C04FF0D7EC0FF0596EDE
:1020900059501200670E436E000E446E5DEC0EF058
:1020A000340E436E000E446E5DEC0EF0320E436E45
:1020B000000E446ECBEC10F0250E436E000E446E05
:1020C0008FEC0DF02C0E4C6E000E4D6E2AEC0BF0CA
:1020D000526E52501200000E416E3F504010D8B464
:1020E00074EF10F076EF10F089EF10F03FC035F08C
:1020F00040C036F0000E376E94EC0AF0010E3F241B
:10210000356E000E4020366E000E376E94EC0AF0ED
:10211000416E41501200000E416E3F504010D8B445
:1021200094EF10F096EF10F0A9EF10F03FC035F0EB
:1021300040C036F0010E376E94EC0AF0010E3F24D9
:10214000356E000E4020366E000E376E94EC0AF0AD
:10215000416E41501200000E586E53505410D8B4C6
:10216000B4EF10F0B6EF10F0C9EF10F053C04CF020
:1021700054C04DF055C04EF056C04FF042EC0DF03B
:1021800053C048F054C049F057C04AF071EC0FF00A
:10219000586E58501200000E456E43504410D8B48B
:1021A000D4EF10F0D6EF10F0E5EF10F043C03FF0A1
:1021B00044C040F0D2EC0EF0010E43243F6E000EFE
:1021C0004420406ED2EC0EF0456E45501200040ED5
:1021D000F66E220EF76E000EF86E00EE01F010EEB5
:1021E00034F00900F5CFEEFFE550E150FAE100EEE2
:1021F0005EF00A0EEE6AE806FDE1000EF86E0001E0
:1022000028EF08F0890F8A0F8B0F8C0F8D0F800F2E
:10221000810F820F830F840F920F930F940F950FEE
:10222000960F40E201000E01030B131B636B730258
:102230000A121A222A1820084AEC10F0246E120002
:020000040020DA
:08000000FFFFFFFFFFFFFFFF00
:020000040030CA
:0E000000FF071F1FFF8385FF0FC00FE00F409B
:00000001FF
