:0400000094EF0FF07A
:10100000003132333435363738392A3023496E636C
:101010006F72726563742050617373776F726421AD
:1010200000506C656173652C207472792061676172
:10103000696E00456E7465722050617373776F72CC
:0D104000643A0057656C636F6D6521000018
:10104E00C9EC0FF02C0E4C6E000E4D6E330E4E6E24
:10105E00100E4F6E84EC0EF0246EEAEC0DF0656E01
:10106E00060E6018D8A43EEF08F040EF08F0F9EF36
:10107E0008F0000E606E0E0E236E400E5C180AE134
:10108E00E20E5D1807E15E045F10D8A451EF08F080
:10109E0053EF08F09DEF08F0340E3F6E000E406ED9
:1010AE0088EC0CF0246E320E3F6E000E406E38EC63
:1010BE000FF0246E2C0E486E000E496E010E4A6E15
:1010CE0051EC0EF0246E2C0E536E000E546E010E6B
:1010DE00556E070E566E430E576E100E586ED5ECAB
:1010EE000EF0246E100E5B6E390E5A6E0E0EE82E3A
:1010FE00FED75A2EFCD75B2EFAD7340E3F6E000E5B
:10110E00406EC9EC0CF0246E320E3F6E000E406E37
:10111E0018EC0FF0246E2C0E486E000E496E010E68
:10112E004A6E51EC0EF0246EF1EF08F0640E3F6E35
:10113E00000E406E88EC0CF0246E2C0E486E000EE5
:10114E00496E010E4A6E51EC0EF0246E2C0E536E4B
:10115E00000E546E010E556E020E566E0D0E576E2B
:10116E00100E586ED5EC0EF0246E2C0E536E000E33
:10117E00546E020E556E020E566E210E576E100EE6
:10118E00586ED5EC0EF0246E0B0E5B6E260E5A6E5C
:10119E005E0EE82EFED75A2EFCD75B2EFAD7640EC3
:1011AE003F6E000E406EC9EC0CF0246E2C0E486E95
:1011BE00000E496E010E4A6E51EC0EF0246E2C0E8E
:1011CE004C6E000E4D6E330E4E6E100E4F6E84EC46
:1011DE000EF0246E000E5C6E000E5D6E000E5E6EE6
:1011EE00000E5F6E2F0E6564FFEF08F001EF09F041
:1011FE0034EF08F03A0E656007EF09F009EF09F0D9
:10120E0034EF08F0602AD00E65245A6E5B6AFF0E2A
:10121E005B225CC035F05DC036F05EC037F05FC05B
:10122E0038F00A0E396E000E3A6E000E3B6E000E4E
:10123E003C6EB5EC0DF05A5035245C6E5B5036208A
:10124E005D6E000E37205E6E000E38205F6E2C0E27
:10125E00536E000E546E020E556E232A23C056F0A6
:10126E0065C057F058EC0FF0246E030E5B6E080E3F
:10127E005A6E770EE82EFED75A2EFCD75B2EFAD773
:10128E0000F02C0E536E000E546E020E556E23C0DF
:10129E0056F02A0E576E58EC0FF0246E34EF08F00D
:1012AE0000EF00F0010E3D6E35503610D8B462EFEF
:1012BE0009F064EF09F075EF09F035C0D9FF36C0BB
:1012CE00DAFFDF30E832E832070B376E070E37648D
:1012DE0073EF09F075EF09F0D8EF09F0000E3D6ECF
:1012EE00F9EF09F035C0D9FF36C0DAFFDF30E8324A
:1012FE00E832070B376E010E386E372A89EF09F088
:10130E00D8903836372E87EF09F03850FF0A396EED
:10131E0035C0D9FF36C0DAFFDF50070B3A6E3A50B0
:10132E00020D150EF324D96E000EF420DA6EDECF08
:10133E003BF0DDCF3CF03BC0D9FF3CC0DAFF39506B
:10134E00DF16F9EF09F035C0D9FF36C0DAFFDF300E
:10135E00E832E832070B376E010E386E372ABAEFD5
:10136E0009F0D8903836372EB8EF09F035C0D9FFCE
:10137E0036C0DAFFDF50070B396E3950020D150EED
:10138E00F324D96E000EF420DA6EDECF3AF0DDCF04
:10139E003BF03AC0D9FF3BC0DAFF3850DF12F9EF0D
:1013AE0009F035C0D9FF36C0DAFFDFBCE1EF09F036
:1013BE00E4EF09F0010EE5EF09F0000E376E386A22
:1013CE003850000AD8B4EEEF09F075EF09F0375037
:1013DE00000AD8B479EF09F0010AD8B4AAEF09F0DF
:1013EE0075EF09F03D501200010E3E6E355036106D
:1013FE00D8B404EF0AF006EF0AF017EF0AF035C082
:10140E00D9FF36C0DAFFDF30E832E832070B386E2C
:10141E00070E386415EF0AF017EF0AF07AEF0AF0AC
:10142E00000E3E6E8FEF0AF035C0D9FF36C0DAFFE0
:10143E00DF30E832E832070B386E010E396E382A8B
:10144E002BEF0AF0D8903936382E29EF0AF03950A2
:10145E00FF0A3A6E35C0D9FF36C0DAFFDF50070BF0
:10146E003B6E3B50020D010EF324D96E000EF4209C
:10147E00DA6EDECF3CF0DDCF3DF03CC0D9FF3DC093
:10148E00DAFF3A50DF168FEF0AF035C0D9FF36C0BB
:10149E00DAFFDF30E832E832070B386E010E396EB4
:1014AE00382A5CEF0AF0D8903936382E5AEF0AF007
:1014BE0035C0D9FF36C0DAFFDF50070B3A6E3A500F
:1014CE00020D010EF324D96E000EF420DA6EDECF7B
:1014DE003BF0DDCF3CF03BC0D9FF3CC0DAFF3950CA
:1014EE00DF128FEF0AF03750386E396A3950000A22
:1014FE00D8B484EF0AF017EF0AF03850000AD8B4C7
:10150E001BEF0AF0010AD8B44CEF0AF017EF0AF0FD
:10151E003E501200000E516E4C504D10D8B49AEF42
:10152E000AF09CEF0AF01FEF0BF04CC03FF04DC0DD
:10153E0040F07FEC0DF0010E4C243F6E000E4D205E
:10154E00406E7FEC0DF0000E506E50504C244E6EDF
:10155E00000E4D204F6E020E4E243F6E000E4F2099
:10156E00406E7FEC0DF0502A030E5064C1EF0AF06E
:10157E00C3EF0AF0ACEF0AF01A0E4E6EF80EE82E1C
:10158E00FED74E2EFCD700D04CC048F04DC049F0CF
:10159E00380E4A6E51EC0EF0070E4E6E7D0EE82E92
:1015AE00FED74E2EFCD700F04CC048F04DC049F08F
:1015BE00380E4A6E51EC0EF0320EE82EFED74CC0AD
:1015CE0048F04DC049F0380E4A6E51EC0EF04CC04A
:1015DE0048F04DC049F0010E4A6E51EC0EF04CC071
:1015EE0048F04DC049F0020E4A6E51EC0EF04CC060
:1015FE0048F04DC049F0060E4A6E51EC0EF04CC04C
:10160E0048F04DC049F00C0E4A6E51EC0EF04CC035
:10161E0048F04DC049F0280E4A6E51EC0EF04CC009
:10162E0048F04DC049F0800E4A6E51EC0EF0516EEE
:10163E0051501200000E456E3F504010D8B42AEFA4
:10164E000BF02CEF0BF091EF0BF041504210D8B491
:10165E0033EF0BF035EF0BF091EF0BF0000E486E01
:10166E0048503F24356E000E4020366E010E376E08
:10167E00FBEC09F0000E476E47503F24436E000E00
:10168E004020446E040E4324356E000E4420366E08
:10169E00460E376E000E386E93EC0BF04604D8A44F
:1016AE005BEF0BF05DEF0BF074EF0BF04850030D9A
:1016BE00010EF324436E100EF420446E4750432661
:1016CE00000E442243C0F6FF44C0F7FF41C0D9FFCD
:1016DE0042C0DAFF0800F5CFDFFF472A020E47644B
:1016EE007BEF0BF07DEF0BF043EF0BF048503F24F8
:1016FE00356E000E4020366E000E376EFBEC09F094
:10170E00456E482A030E48648FEF0BF091EF0BF0F5
:10171E0037EF0BF045501200010E3E6E355036106D
:10172E00D8B49CEF0BF09EEF0BF0B8EF0BF03750E8
:10173E003810D8B4A5EF0BF0A7EF0BF0B8EF0BF005
:10174E0035C0D9FF36C0DAFFDF30E832E832070B9A
:10175E00396E070E3964B6EF0BF0B8EF0BF0BCEF35
:10176E000BF0000E3E6EEDEF0BF035C0D9FF36C01C
:10177E00DAFFDF30E832E832070B396E35C0D9FFB9
:10178E0036C0DAFFDF50070B3A6E3A50020D0B0EE1
:10179E00F324D96E000EF420DA6EDECF3BF0DDCFEF
:1017AE003CF03BC0D9FF3CC0DAFFDF503D6E392A1A
:1017BE00E3EF0BF0D8903D32392EE1EF0BF03D50B8
:1017CE00010B37C0D9FF38C0DAFFDF6E3E50120072
:1017DE00000E526E4C504D10D8B4F8EF0BF0FAEFDD
:1017EE000BF03AEF0CF0030E4E6000EF0CF002EF30
:1017FE000CF03AEF0CF0150E4F6008EF0CF00AEFFC
:10180E000CF03AEF0CF04F0625EF0CF04CC048F000
:10181E004DC049F04F50800F4A6E51EC0EF0526E93
:10182E003AEF0CF04CC048F04DC049F04F50C00F8D
:10183E004A6E51EC0EF0526E3AEF0CF04E50506E66
:10184E00516A5150000AD8B42FEF0CF03AEF0CF059
:10185E005050010AD8B40DEF0CF0030AD8B419EFAA
:10186E000CF03AEF0CF052501200000E476E43503F
:10187E004410D8B445EF0CF047EF0CF086EF0CF0A7
:10188E00000E496E000E486E485043243F6E49507C
:10189E004420406E7FEC0DF0484A492A49BE61EF64
:1018AE000CF0495009E1040E485CD8A061EF0CF031
:1018BE0063EF0CF04BEF0CF0000E4B6E000E4A6E09
:1018CE004A504324456E4B504420466E040E452428
:1018DE00356E000E4620366E59EC09F0476E4A4AB8
:1018EE004B2A4BBE84EF0CF04B5009E1030E4A5CC1
:1018FE00D8A084EF0CF086EF0CF067EF0CF0475099
:10190E0012003F504010D8A48FEF0CF091EF0CF066
:10191E0095EF0CF0000E426EC7EF0CF062C043F074
:10192E003FC0D9FF40C0DAFFDF50070B416E435076
:10193E004118F80B4118436E3FC0D9FF40C0DAFF83
:10194E00DF30E832E832070B416E414641464146F0
:10195E0043504118C70B4118436E439C3FC0D9FFFB
:10196E0040C0DAFFDFAC02D0438E01D0439E430E5F
:10197E00356E000E366E010E376EFBEC09F0426EC0
:10198E00425012003F504010D8A4D0EF0CF0D2EFCE
:10199E000CF0D6EF0CF0000E426E08EF0DF061C0A9
:1019AE0043F03FC0D9FF40C0DAFFDF50070B416E56
:1019BE0043504118F80B4118436E3FC0D9FF40C049
:1019CE00DAFFDF30E832E832070B416E414641461E
:1019DE00414643504118C70B4118436E439C3FC0CC
:1019EE00D9FF40C0DAFFDFAC02D0438E01D0439E58
:1019FE00430E356E000E366E000E376EFBEC09F0A0
:101A0E00426E4250120043504410D8A411EF0DF014
:101A1E0013EF0DF017EF0DF0000E466E47EF0DF0C1
:101A2E0063C047F043C0D9FF44C0DAFFDF50070B55
:101A3E00456E47504518F80B4518476E43C0D9FF01
:101A4E0044C0DAFFDF30E832E832070B456E454618
:101A5E004546454647504518C70B4518476E479CA7
:101A6E0043C0D9FF44C0DAFFDFAC02D0478E01D0AD
:101A7E00479E470E3F6E000E406E7FEC0DF0466E99
:101A8E0046501200000E466E3F504010D8B452EF32
:101A9E000DF054EF0DF07DEF0DF0000E476E475038
:101AAE003F24426E000E4020436E020E4224356EDD
:101ABE00000E4320366E47C044F041C045F0442A24
:101ACE006BEF0DF0D8904532442E69EF0DF0455076
:101ADE00010B376EFBEC09F0466E472A030E476486
:101AEE007BEF0DF07DEF0DF056EF0DF0465012002E
:101AFE003F504010D8B486EF0DF088EF0DF099EFFF
:101B0E000DF03FC0D9FF40C0DAFFDF30E832E832D7
:101B1E00070B416E070E416497EF0DF099EF0DF034
:101B2E009DEF0DF0000E426EB3EF0DF03FC035F09D
:101B3E0040C036F059EC09F0426E3FC035F040C05F
:101B4E0036F03FC0D9FF40C0DAFF000EDFBE010EF7
:101B5E00376EFBEC09F0426E42501200000E3D6EE5
:101B6E00000E3E6E000E3F6E000E406E35A0C2EFB0
:101B7E000DF0C4EF0DF0CCEF0DF039503D263A507C
:101B8E003E223B503F223C504022D89039363A36C6
:101B9E003B363C36D89038323732363235323550C5
:101BAE00361037103810D8A4DFEF0DF0E1EF0DF03E
:101BBE00BDEF0DF03DC035F03EC036F03FC037F002
:101BCE0040C038F01200250E3F6E000E406E4A0ED9
:101BDE00416E000E426E21EC0BF0246EC30E496E68
:101BEE00CD0EE82EFED7492EFCD700F04A50D8A4D1
:101BFE0003EF0EF005EF0EF008EF0EF0000E1DEFE6
:101C0E000EF0250E3F6E000E406E4B0E416E000E16
:101C1E00426E21EC0BF0246E4B504A18D8A41AEFEA
:101C2E000EF01CEF0EF005EF0EF04B501200000EF2
:101C3E004B6E48504910D8B427EF0EF029EF0EF036
:101C4E004FEF0EF048C035F049C036F0010E376E3A
:101C5E00FBEC09F048C03FF049C040F04A380F0B8A
:101C6E00416E49EC0DF048C03FF049C040F0B0EC79
:101C7E000EF048C03FF049C040F04AC041F049EC78
:101C8E000DF048C03FF049C040F0B0EC0EF04B6E86
:101C9E004B501200000E4B6E48504910D8B45AEFFC
:101CAE000EF05CEF0EF082EF0EF048C035F049C03A
:101CBE0036F0000E376EFBEC09F048C03FF049C01D
:101CCE0040F04A380F0B416E49EC0DF048C03FF022
:101CDE0049C040F0B0EC0EF048C03FF049C040F0B3
:101CEE004AC041F049EC0DF048C03FF049C040F009
:101CFE00B0EC0EF04B6E4B501200000E506E4C506E
:101D0E004D10D8B48DEF0EF08FEF0EF0AEEF0EF04B
:101D1E00010E506E4CC048F04DC049F04EC0F6FF5B
:101D2E004FC0F7FF0800F5CF4AF01EEC0EF04E4AFA
:101D3E004F2A4EC0F6FF4FC0F7FF0800F5500009BE
:101D4E00D8A4ACEF0EF0AEEF0EF091EF0EF05050B7
:101D5E001200000E416E3F504010D8B4B9EF0EF095
:101D6E00BBEF0EF0D3EF0EF0010E3F24356E000EDA
:101D7E004020366E010E376EFBEC09F000D000D01D
:101D8E0000F0010E3F24356E000E4020366E000E20
:101D9E00376EFBEC09F0416E41501200000E596E89
:101DAE0053505410D8B4DEEF0EF0E0EF0EF0F5EF16
:101DBE000EF053C04CF054C04DF055C04EF056C00E
:101DCE004FF0EFEC0BF053C04CF054C04DF057C039
:101DDE004EF058C04FF084EC0EF0596E5950120070
:101DEE00640E436E000E446E0AEC0DF0340E436E1C
:101DFE00000E446E0AEC0DF0320E436E000E446E71
:101E0E0078EC0FF0250E436E000E446E3CEC0CF099
:101E1E002C0E4C6E000E4D6E91EC0AF0526E52501E
:101E2E001200000E416E3F504010D8B421EF0FF05B
:101E3E0023EF0FF036EF0FF03FC035F040C036F015
:101E4E00000E376EFBEC09F0010E3F24356E000ECE
:101E5E004020366E000E376EFBEC09F0416E41509D
:101E6E001200000E416E3F504010D8B441EF0FF0FB
:101E7E0043EF0FF056EF0FF03FC035F040C036F095
:101E8E00010E376EFBEC09F0010E3F24356E000E8D
:101E9E004020366E000E376EFBEC09F0416E41505D
:101EAE001200000E586E53505410D8B461EF0FF05C
:101EBE0063EF0FF076EF0FF053C04CF054C04DF0BF
:101ECE0055C04EF056C04FF0EFEC0BF053C048F03B
:101EDE0054C049F057C04AF01EEC0EF0586E5850E0
:101EEE001200000E456E43504410D8B481EF0FF02F
:101EFE0083EF0FF092EF0FF043C03FF044C040F07D
:101F0E007FEC0DF0010E43243F6E000E4420406E18
:101F1E007FEC0DF0456E455012005E0EF66E1F0EF4
:101F2E00F76E000EF86E00EE01F010EE34F00900C0
:101F3E00F5CFEEFFE550E150FAE100EE5CF0090E50
:101F4E00EE6AE806FDE1000EF86E000127EF08F0DC
:101F5E00890F8A0F8B0F8C0F8D0F800F810F820FC1
:101F6E00830F840F920F930F940F950F960F40E2ED
:101F7E0001000E01030B131B636B73020A121A226C
:0C1F8E002A182008F7EC0EF0246E120058
:020000040020DA
:08000000FFFFFFFFFFFFFFFF00
:020000040030CA
:0E000000FF071F1FFF8385FF0FC00FE00F409B
:00000001FF
