:0400000076EF0FF098
:10100000003132333435363738392A3023496E636C
:101010006F72726563742050617373776F726421AD
:1010200000506C656173652C207472792061676172
:10103000696E00456E7465722050617373776F72CC
:0D104000643A0057656C636F6D6521000018
:10104E0091EC0FF02F0E4F6E000E506E330E516E50
:10105E00100E526E4AEC0EF0276EB0EC0DF06D6E67
:10106E00060E6818D8A43EEF08F040EF08F010EF17
:10107E0009F0000E686E0E0E266E010E5F6E000EEB
:10108E00606E610E6024D96EDA6A000EDA221F0ECF
:10109E006024E16EE26A000EE222DE50E618D8B459
:1010AE005BEF08F05DEF08F061EF08F0000E5F6E89
:1010BE006AEF08F0602A050E606468EF08F06AEFC8
:1010CE0008F048EF08F05F04D8A470EF08F072EF54
:1010DE0008F0BCEF08F0370E426E000E436E83EC44
:1010EE000CF0276E350E426E000E436EFEEC0EF0C7
:1010FE00276E2F0E4B6E000E4C6E010E4D6E17ECC2
:10110E000EF0276E2F0E566E000E576E010E586E95
:10111E00070E596E430E5A6E100E5B6E9BEC0EF060
:10112E00276E100E5E6E390E5D6E0E0EE82EFED719
:10113E005D2EFCD75E2EFAD7370E426E000E436E32
:10114E00C4EC0CF0276E350E426E000E436EDEECD4
:10115E000EF0276E2F0E4B6E000E4C6E010E4D6E66
:10116E0017EC0EF0276E10EF09F06C0E426E000EAB
:10117E00436E83EC0CF0276E2F0E4B6E000E4C6EF2
:10118E00010E4D6E17EC0EF0276E2F0E566E000EE2
:10119E00576E010E586E020E596E0D0E5A6E100ECF
:1011AE005B6E9BEC0EF0276E2F0E566E000E576E7A
:1011BE00020E586E020E596E210E5A6E100E5B6E96
:1011CE009BEC0EF0276E0B0E5E6E260E5D6E5E0EA7
:1011DE00E82EFED75D2EFCD75E2EFAD76C0E426E31
:1011EE00000E436EC4EC0CF0276E2F0E4B6E000EED
:1011FE004C6E010E4D6E17EC0EF0276E2F0E4F6ECD
:10120E00000E506E330E516E100E526E4AEC0EF0F2
:10121E00276E2F0E6D6416EF09F018EF09F034EFFC
:10122E0008F03A0E6D601EEF09F020EF09F034EF72
:10123E0008F0610E6824D96EDA6A000EDA226DC0EB
:10124E00DFFF682A2F0E566E000E576E020E586E76
:10125E00262A26C059F06DC05AF01EEC0FF0276EEC
:10126E00030E5E6E080E5D6E770EE82EFED75D2EB7
:10127E00FCD75E2EFAD700F02F0E566E000E576E6C
:10128E00020E586E26C059F02A0E5A6E1EEC0FF042
:10129E00276E34EF08F000EF00F0010E406E38506C
:1012AE003910D8B45DEF09F05FEF09F070EF09F077
:1012BE0038C0D9FF39C0DAFFDF30E832E832070B29
:1012CE003A6E070E3A646EEF09F070EF09F0D3EF45
:1012DE0009F0000E406EF4EF09F038C0D9FF39C0A6
:1012EE00DAFFDF30E832E832070B3A6E010E3B6E62
:1012FE003A2A84EF09F0D8903B363A2E82EF09F065
:10130E003B50FF0A3C6E38C0D9FF39C0DAFFDF50C0
:10131E00070B3D6E3D50020D150EF324D96E000ED7
:10132E00F420DA6EDECF3EF0DDCF3FF03EC0D9FFC7
:10133E003FC0DAFF3C50DF16F4EF09F038C0D9FF9A
:10134E0039C0DAFFDF30E832E832070B3A6E010EB1
:10135E003B6E3A2AB5EF09F0D8903B363A2EB3EFF2
:10136E0009F038C0D9FF39C0DAFFDF50070B3C6EE9
:10137E003C50020D150EF324D96E000EF420DA6ED9
:10138E00DECF3DF0DDCF3EF03DC0D9FF3EC0DAFFEF
:10139E003B50DF12F4EF09F038C0D9FF39C0DAFF45
:1013AE00DFBCDCEF09F0DFEF09F0010EE0EF09F032
:1013BE00000E3A6E3B6A3B50000AD8B4E9EF09F0D2
:1013CE0070EF09F03A50000AD8B474EF09F0010A30
:1013DE00D8B4A5EF09F070EF09F040501200010EDD
:1013EE00416E38503910D8B4FFEF09F001EF0AF012
:1013FE0012EF0AF038C0D9FF39C0DAFFDF30E83219
:10140E00E832070B3B6E070E3B6410EF0AF012EF4B
:10141E000AF075EF0AF0000E416E8AEF0AF038C03E
:10142E00D9FF39C0DAFFDF30E832E832070B3B6E06
:10143E00010E3C6E3B2A26EF0AF0D8903C363B2E2E
:10144E0024EF0AF03C50FF0A3D6E38C0D9FF39C078
:10145E00DAFFDF50070B3E6E3E50020D010EF324F5
:10146E00D96E000EF420DA6EDECF3FF0DDCF40F005
:10147E003FC0D9FF40C0DAFF3D50DF168AEF0AF0B9
:10148E0038C0D9FF39C0DAFFDF30E832E832070B57
:10149E003B6E010E3C6E3B2A57EF0AF0D8903C365D
:1014AE003B2E55EF0AF038C0D9FF39C0DAFFDF50B6
:1014BE00070B3D6E3D50020D010EF324D96E000E4A
:1014CE00F420DA6EDECF3EF0DDCF3FF03EC0D9FF26
:1014DE003FC0DAFF3C50DF128AEF0AF03A503B6E03
:1014EE003C6A3C50000AD8B47FEF0AF012EF0AF0C3
:1014FE003B50000AD8B416EF0AF0010AD8B447EFF1
:10150E000AF012EF0AF041501200000E546E4F50C6
:10151E005010D8B495EF0AF097EF0AF01AEF0BF0CF
:10152E004FC042F050C043F07AEC0DF0010E4F2444
:10153E00426E000E5020436E7AEC0DF0000E536E8C
:10154E0053504F24516E000E5020526E020E5124F5
:10155E00426E000E5220436E7AEC0DF0532A030EAB
:10156E005364BCEF0AF0BEEF0AF0A7EF0AF01A0EB2
:10157E00516EF80EE82EFED7512EFCD700D04FC07C
:10158E004BF050C04CF0380E4D6E17EC0EF0070EAF
:10159E00516E7D0EE82EFED7512EFCD700F04FC0B7
:1015AE004BF050C04CF0380E4D6E17EC0EF0320E64
:1015BE00E82EFED74FC04BF050C04CF0380E4D6E9B
:1015CE0017EC0EF04FC04BF050C04CF0010E4D6EAC
:1015DE0017EC0EF04FC04BF050C04CF0020E4D6E9B
:1015EE0017EC0EF04FC04BF050C04CF0060E4D6E87
:1015FE0017EC0EF04FC04BF050C04CF00C0E4D6E71
:10160E0017EC0EF04FC04BF050C04CF0280E4D6E44
:10161E0017EC0EF04FC04BF050C04CF0800E4D6EDC
:10162E0017EC0EF0546E54501200000E486E4250DD
:10163E004310D8B425EF0BF027EF0BF08CEF0BF027
:10164E0044504510D8B42EEF0BF030EF0BF08CEF6A
:10165E000BF0000E4B6E4B504224386E000E4320A2
:10166E00396E010E3A6EF6EC09F0000E4A6E4A50D3
:10167E004224466E000E4320476E040E4624386EFA
:10168E00000E4720396E490E3A6E000E3B6E8EEC00
:10169E000BF04904D8A456EF0BF058EF0BF06FEF98
:1016AE000BF04B50030D010EF324466E100EF4207A
:1016BE00476E4A504626000E472246C0F6FF47C0E8
:1016CE00F7FF44C0D9FF45C0DAFF0800F5CFDFFFB2
:1016DE004A2A020E4A6476EF0BF078EF0BF03EEFDB
:1016EE000BF04B504224386E000E4320396E000E24
:1016FE003A6EF6EC09F0486E4B2A030E4B648AEFF5
:10170E000BF08CEF0BF032EF0BF048501200010E85
:10171E00416E38503910D8B497EF0BF099EF0BF0AB
:10172E00B3EF0BF03A503B10D8B4A0EF0BF0A2EF92
:10173E000BF0B3EF0BF038C0D9FF39C0DAFFDF3052
:10174E00E832E832070B3C6E070E3C64B1EF0BF04B
:10175E00B3EF0BF0B7EF0BF0000E416EE8EF0BF0AE
:10176E0038C0D9FF39C0DAFFDF30E832E832070B74
:10177E003C6E38C0D9FF39C0DAFFDF50070B3D6E23
:10178E003D50020D0B0EF324D96E000EF420DA6ECE
:10179E00DECF3EF0DDCF3FF03EC0D9FF3FC0DAFFD7
:1017AE00DF50406E3C2ADEEF0BF0D89040323C2EDC
:1017BE00DCEF0BF04050010B3AC0D9FF3BC0DAFF13
:1017CE00DF6E41501200000E556E4F505010D8B4BF
:1017DE00F3EF0BF0F5EF0BF035EF0CF0030E51605D
:1017EE00FBEF0BF0FDEF0BF035EF0CF0150E52602A
:1017FE0003EF0CF005EF0CF035EF0CF0520620EF76
:10180E000CF04FC04BF050C04CF05250800F4D6E4C
:10181E0017EC0EF0556E35EF0CF04FC04BF050C07C
:10182E004CF05250C00F4D6E17EC0EF0556E35EF5A
:10183E000CF05150536E546A5450000AD8B42AEF2B
:10184E000CF035EF0CF05350010AD8B408EF0CF041
:10185E00030AD8B414EF0CF035EF0CF0555012000B
:10186E00000E4A6E46504710D8B440EF0CF042EFCF
:10187E000CF081EF0CF0000E4C6E000E4B6E4B50C8
:10188E004624426E4C504720436E7AEC0DF04B4A84
:10189E004C2A4CBE5CEF0CF04C5009E1040E4B5C34
:1018AE00D8A05CEF0CF05EEF0CF046EF0CF0000EE3
:1018BE004E6E000E4D6E4D504624486E4E504720D3
:1018CE00496E040E4824386E000E4920396E54ECD1
:1018DE0009F04A6E4D4A4E2A4EBE7FEF0CF04E5026
:1018EE0009E1030E4D5CD8A07FEF0CF081EF0CF0F8
:1018FE0062EF0CF04A50120042504310D8A48AEF07
:10190E000CF08CEF0CF090EF0CF0000E456EC2EF69
:10191E000CF06AC046F042C0D9FF43C0DAFFDF5078
:10192E00070B446E46504418F80B4418466E42C0DE
:10193E00D9FF43C0DAFFDF30E832E832070B446EDE
:10194E0044464446444646504418C70B4418466E17
:10195E00469C42C0D9FF43C0DAFFDFAC02D0468EB0
:10196E0001D0469E460E386E000E396E010E3A6E4E
:10197E00F6EC09F0456E4550120042504310D8A4C3
:10198E00CBEF0CF0CDEF0CF0D1EF0CF0000E456E5E
:10199E0003EF0DF069C046F042C0D9FF43C0DAFF35
:1019AE00DF50070B446E46504418F80B4418466E31
:1019BE0042C0D9FF43C0DAFFDF30E832E832070B0E
:1019CE00446E44464446444646504418C70B441899
:1019DE00466E469C42C0D9FF43C0DAFFDFAC02D050
:1019EE00468E01D0469E460E386E000E396E000EA3
:1019FE003A6EF6EC09F0456E45501200465047100F
:101A0E00D8A40CEF0DF00EEF0DF012EF0DF0000E4E
:101A1E00496E42EF0DF06BC04AF046C0D9FF47C089
:101A2E00DAFFDF50070B486E4A504818F80B48187B
:101A3E004A6E46C0D9FF47C0DAFFDF30E832E832DF
:101A4E00070B486E4846484648464A504818C70B4A
:101A5E0048184A6E4A9C46C0D9FF47C0DAFFDFAC31
:101A6E0002D04A8E01D04A9E4A0E426E000E436E3E
:101A7E007AEC0DF0496E49501200000E496E42503C
:101A8E004310D8B44DEF0DF04FEF0DF078EF0DF091
:101A9E00000E4A6E4A504224456E000E4320466E9A
:101AAE00020E4524386E000E4620396E4AC047F0AD
:101ABE0044C048F0472A66EF0DF0D8904832472EC2
:101ACE0064EF0DF04850010B3A6EF6EC09F0496EDA
:101ADE004A2A030E4A6476EF0DF078EF0DF051EFBF
:101AEE000DF04950120042504310D8B481EF0DF062
:101AFE0083EF0DF094EF0DF042C0D9FF43C0DAFF33
:101B0E00DF30E832E832070B446E070E446492EF82
:101B1E000DF094EF0DF098EF0DF0000E456EAEEF58
:101B2E000DF042C038F043C039F054EC09F0456E68
:101B3E0042C038F043C039F042C0D9FF43C0DAFF8B
:101B4E00000EDFBE010E3A6EF6EC09F0456E455002
:101B5E001200280E426E000E436E4D0E446E000EA5
:101B6E00456E1CEC0BF0276EC30E4C6ECD0EE82EA0
:101B7E00FED74C2EFCD700F04D50D8A4C9EF0DF077
:101B8E00CBEF0DF0CEEF0DF0000EE3EF0DF0280EC3
:101B9E00426E000E436E4E0E446E000E456E1CECF1
:101BAE000BF0276E4E504D18D8A4E0EF0DF0E2EF7B
:101BBE000DF0CBEF0DF04E501200000E4E6E4B504E
:101BCE004C10D8B4EDEF0DF0EFEF0DF015EF0EF069
:101BDE004BC038F04CC039F0010E3A6EF6EC09F0FD
:101BEE004BC042F04CC043F04D380F0B446E44ECEA
:101BFE000DF04BC042F04CC043F076EC0EF04BC0F3
:101C0E0042F04CC043F04DC044F044EC0DF04BC0DC
:101C1E0042F04CC043F076EC0EF04E6E4E50120079
:101C2E00000E4E6E4B504C10D8B420EF0EF022EF3B
:101C3E000EF048EF0EF04BC038F04CC039F0000EED
:101C4E003A6EF6EC09F04BC042F04CC043F04D3802
:101C5E000F0B446E44EC0DF04BC042F04CC043F001
:101C6E0076EC0EF04BC042F04CC043F04DC044F049
:101C7E0044EC0DF04BC042F04CC043F076EC0EF04D
:101C8E004E6E4E501200000E536E4F505010D8B480
:101C9E0053EF0EF055EF0EF074EF0EF0010E536E83
:101CAE004FC04BF050C04CF051C0F6FF52C0F7FF82
:101CBE000800F5CF4DF0E4EC0DF0514A522A51C018
:101CCE00F6FF52C0F7FF0800F5500009D8A472EFD6
:101CDE000EF074EF0EF057EF0EF053501200000E90
:101CEE00446E42504310D8B47FEF0EF081EF0EF0E9
:101CFE0099EF0EF0010E4224386E000E4320396E1D
:101D0E00010E3A6EF6EC09F000D000D000F0010E94
:101D1E004224386E000E4320396E000E3A6EF6ECF9
:101D2E0009F0446E44501200000E5C6E565057106F
:101D3E00D8B4A4EF0EF0A6EF0EF0BBEF0EF056C027
:101D4E004FF057C050F058C051F059C052F0EAEC65
:101D5E000BF056C04FF057C050F05AC051F05BC058
:101D6E0052F04AEC0EF05C6E5C5012006C0E466E39
:101D7E00000E476E05EC0DF0370E466E000E476EE8
:101D8E0005EC0DF0350E466E000E476E3EEC0FF074
:101D9E00280E466E000E476E37EC0CF02F0E4F6E6F
:101DAE00000E506E8CEC0AF0556E55501200000E5F
:101DBE00446E42504310D8B4E7EF0EF0E9EF0EF048
:101DCE00FCEF0EF042C038F043C039F0000E3A6E10
:101DDE00F6EC09F0010E4224386E000E4320396EE7
:101DEE00000E3A6EF6EC09F0446E44501200000EEE
:101DFE00446E42504310D8B407EF0FF009EF0FF0C6
:101E0E001CEF0FF042C038F043C039F0010E3A6EAD
:101E1E00F6EC09F0010E4224386E000E4320396EA6
:101E2E00000E3A6EF6EC09F0446E44501200000EAD
:101E3E005B6E56505710D8B427EF0FF029EF0FF006
:101E4E003CEF0FF056C04FF057C050F058C051F055
:101E5E0059C052F0EAEC0BF056C04BF057C04CF0A4
:101E6E005AC04DF0E4EC0DF05B6E5B501200000EAC
:101E7E00486E46504710D8B447EF0FF049EF0FF0B9
:101E8E0058EF0FF046C042F047C043F07AEC0DF029
:101E9E00010E4624426E000E4720436E7AEC0DF082
:101EAE00486E48501200890F8A0F8B0F8C0F8D0FC2
:101EBE00800F810F820F830F840F920F930F940F59
:101ECE00950F960F313233343536000E01030B1356
:0D1EDE001B636B73020A121A222A182008D7
:101EEC00B40EF66E1E0EF76E000EF86E00EE01F0DC
:101EFC0010EE37F00900F5CFEEFFE550E150FAE1B6
:101F0C0000EE61F00C0EEE6AE806FDE1000EF86ED4
:0E1F1C00000127EF08F0BDEC0EF0276E12005A
:020000040020DA
:08000000FFFFFFFFFFFFFFFF00
:020000040030CA
:0E000000FF071F1FFF8385FF0FC00FE00F409B
:00000001FF
